{
  "_format": "hh-sol-artifact-1",
  "contractName": "CollegeElection",
  "sourceName": "contracts/CollegeElection.sol",
  "abi": [
    {
      "inputs": [],
      "stateMutability": "nonpayable",
      "type": "constructor"
    },
    {
      "anonymous": false,
      "inputs": [
        {
          "indexed": true,
          "internalType": "address",
          "name": "previousAdmin",
          "type": "address"
        },
        {
          "indexed": true,
          "internalType": "address",
          "name": "newAdmin",
          "type": "address"
        }
      ],
      "name": "AdminTransferred",
      "type": "event"
    },
    {
      "anonymous": false,
      "inputs": [
        {
          "indexed": true,
          "internalType": "uint256",
          "name": "candidateId",
          "type": "uint256"
        },
        {
          "indexed": false,
          "internalType": "string",
          "name": "name",
          "type": "string"
        }
      ],
      "name": "CandidateAdded",
      "type": "event"
    },
    {
      "anonymous": false,
      "inputs": [
        {
          "indexed": true,
          "internalType": "uint256",
          "name": "candidateId",
          "type": "uint256"
        },
        {
          "indexed": false,
          "internalType": "string",
          "name": "name",
          "type": "string"
        }
      ],
      "name": "CandidateUpdated",
      "type": "event"
    },
    {
      "anonymous": false,
      "inputs": [
        {
          "indexed": false,
          "internalType": "string",
          "name": "title",
          "type": "string"
        },
        {
          "indexed": false,
          "internalType": "string",
          "name": "description",
          "type": "string"
        },
        {
          "indexed": false,
          "internalType": "string",
          "name": "bannerImage",
          "type": "string"
        }
      ],
      "name": "ElectionMetadataUpdated",
      "type": "event"
    },
    {
      "anonymous": false,
      "inputs": [
        {
          "indexed": false,
          "internalType": "enum CollegeElection.ElectionPhase",
          "name": "newPhase",
          "type": "uint8"
        }
      ],
      "name": "PhaseChanged",
      "type": "event"
    },
    {
      "anonymous": false,
      "inputs": [
        {
          "indexed": true,
          "internalType": "address",
          "name": "voter",
          "type": "address"
        },
        {
          "indexed": true,
          "internalType": "uint256",
          "name": "candidateId",
          "type": "uint256"
        }
      ],
      "name": "VoteCast",
      "type": "event"
    },
    {
      "anonymous": false,
      "inputs": [
        {
          "indexed": true,
          "internalType": "uint256",
          "name": "candidateId",
          "type": "uint256"
        },
        {
          "indexed": false,
          "internalType": "uint256",
          "name": "previousCount",
          "type": "uint256"
        },
        {
          "indexed": false,
          "internalType": "uint256",
          "name": "newCount",
          "type": "uint256"
        }
      ],
      "name": "VoteCountAdjusted",
      "type": "event"
    },
    {
      "inputs": [
        {
          "internalType": "string",
          "name": "name",
          "type": "string"
        },
        {
          "internalType": "string",
          "name": "tagline",
          "type": "string"
        },
        {
          "internalType": "string",
          "name": "manifesto",
          "type": "string"
        },
        {
          "internalType": "string",
          "name": "imageUri",
          "type": "string"
        }
      ],
      "name": "addCandidate",
      "outputs": [],
      "stateMutability": "nonpayable",
      "type": "function"
    },
    {
      "inputs": [],
      "name": "admin",
      "outputs": [
        {
          "internalType": "address",
          "name": "",
          "type": "address"
        }
      ],
      "stateMutability": "view",
      "type": "function"
    },
    {
      "inputs": [
        {
          "internalType": "uint256",
          "name": "candidateId",
          "type": "uint256"
        },
        {
          "internalType": "uint256",
          "name": "newCount",
          "type": "uint256"
        }
      ],
      "name": "adminSetVoteCount",
      "outputs": [],
      "stateMutability": "nonpayable",
      "type": "function"
    },
    {
      "inputs": [],
      "name": "bannerImage",
      "outputs": [
        {
          "internalType": "string",
          "name": "",
          "type": "string"
        }
      ],
      "stateMutability": "view",
      "type": "function"
    },
    {
      "inputs": [],
      "name": "candidateCount",
      "outputs": [
        {
          "internalType": "uint256",
          "name": "",
          "type": "uint256"
        }
      ],
      "stateMutability": "view",
      "type": "function"
    },
    {
      "inputs": [
        {
          "internalType": "address",
          "name": "voter",
          "type": "address"
        }
      ],
      "name": "checkIfVoted",
      "outputs": [
        {
          "internalType": "bool",
          "name": "",
          "type": "bool"
        }
      ],
      "stateMutability": "view",
      "type": "function"
    },
    {
      "inputs": [],
      "name": "closeVoting",
      "outputs": [],
      "stateMutability": "nonpayable",
      "type": "function"
    },
    {
      "inputs": [
        {
          "internalType": "uint256",
          "name": "startTime",
          "type": "uint256"
        },
        {
          "internalType": "uint256",
          "name": "endTime",
          "type": "uint256"
        }
      ],
      "name": "configureVotingWindow",
      "outputs": [],
      "stateMutability": "nonpayable",
      "type": "function"
    },
    {
      "inputs": [],
      "name": "electionDescription",
      "outputs": [
        {
          "internalType": "string",
          "name": "",
          "type": "string"
        }
      ],
      "stateMutability": "view",
      "type": "function"
    },
    {
      "inputs": [],
      "name": "electionTitle",
      "outputs": [
        {
          "internalType": "string",
          "name": "",
          "type": "string"
        }
      ],
      "stateMutability": "view",
      "type": "function"
    },
    {
      "inputs": [],
      "name": "getAllCandidates",
      "outputs": [
        {
          "components": [
            {
              "internalType": "uint256",
              "name": "id",
              "type": "uint256"
            },
            {
              "internalType": "string",
              "name": "name",
              "type": "string"
            },
            {
              "internalType": "string",
              "name": "tagline",
              "type": "string"
            },
            {
              "internalType": "string",
              "name": "manifesto",
              "type": "string"
            },
            {
              "internalType": "string",
              "name": "imageUri",
              "type": "string"
            },
            {
              "internalType": "uint256",
              "name": "voteCount",
              "type": "uint256"
            }
          ],
          "internalType": "struct CollegeElection.Candidate[]",
          "name": "",
          "type": "tuple[]"
        }
      ],
      "stateMutability": "view",
      "type": "function"
    },
    {
      "inputs": [
        {
          "internalType": "uint256",
          "name": "id",
          "type": "uint256"
        }
      ],
      "name": "getCandidate",
      "outputs": [
        {
          "internalType": "string",
          "name": "name",
          "type": "string"
        },
        {
          "internalType": "uint256",
          "name": "votes",
          "type": "uint256"
        }
      ],
      "stateMutability": "view",
      "type": "function"
    },
    {
      "inputs": [
        {
          "internalType": "uint256",
          "name": "id",
          "type": "uint256"
        }
      ],
      "name": "getCandidateDetails",
      "outputs": [
        {
          "components": [
            {
              "internalType": "uint256",
              "name": "id",
              "type": "uint256"
            },
            {
              "internalType": "string",
              "name": "name",
              "type": "string"
            },
            {
              "internalType": "string",
              "name": "tagline",
              "type": "string"
            },
            {
              "internalType": "string",
              "name": "manifesto",
              "type": "string"
            },
            {
              "internalType": "string",
              "name": "imageUri",
              "type": "string"
            },
            {
              "internalType": "uint256",
              "name": "voteCount",
              "type": "uint256"
            }
          ],
          "internalType": "struct CollegeElection.Candidate",
          "name": "",
          "type": "tuple"
        }
      ],
      "stateMutability": "view",
      "type": "function"
    },
    {
      "inputs": [],
      "name": "getElectionSnapshot",
      "outputs": [
        {
          "components": [
            {
              "internalType": "string",
              "name": "title",
              "type": "string"
            },
            {
              "internalType": "string",
              "name": "description",
              "type": "string"
            },
            {
              "internalType": "string",
              "name": "bannerImage",
              "type": "string"
            },
            {
              "internalType": "enum CollegeElection.ElectionPhase",
              "name": "phase",
              "type": "uint8"
            },
            {
              "internalType": "uint256",
              "name": "candidateCount",
              "type": "uint256"
            },
            {
              "internalType": "uint256",
              "name": "totalVotes",
              "type": "uint256"
            },
            {
              "internalType": "uint256",
              "name": "votingStartsAt",
              "type": "uint256"
            },
            {
              "internalType": "uint256",
              "name": "votingEndsAt",
              "type": "uint256"
            },
            {
              "internalType": "uint256",
              "name": "lastVoteAt",
              "type": "uint256"
            },
            {
              "internalType": "address",
              "name": "lastVoter",
              "type": "address"
            }
          ],
          "internalType": "struct CollegeElection.ElectionSnapshot",
          "name": "snapshot",
          "type": "tuple"
        }
      ],
      "stateMutability": "view",
      "type": "function"
    },
    {
      "inputs": [],
      "name": "getLeadingCandidate",
      "outputs": [
        {
          "components": [
            {
              "internalType": "uint256",
              "name": "id",
              "type": "uint256"
            },
            {
              "internalType": "string",
              "name": "name",
              "type": "string"
            },
            {
              "internalType": "string",
              "name": "tagline",
              "type": "string"
            },
            {
              "internalType": "string",
              "name": "manifesto",
              "type": "string"
            },
            {
              "internalType": "string",
              "name": "imageUri",
              "type": "string"
            },
            {
              "internalType": "uint256",
              "name": "voteCount",
              "type": "uint256"
            }
          ],
          "internalType": "struct CollegeElection.Candidate",
          "name": "leader",
          "type": "tuple"
        }
      ],
      "stateMutability": "view",
      "type": "function"
    },
    {
      "inputs": [
        {
          "internalType": "address",
          "name": "",
          "type": "address"
        }
      ],
      "name": "hasVoted",
      "outputs": [
        {
          "internalType": "bool",
          "name": "",
          "type": "bool"
        }
      ],
      "stateMutability": "view",
      "type": "function"
    },
    {
      "inputs": [],
      "name": "isVotingOpen",
      "outputs": [
        {
          "internalType": "bool",
          "name": "",
          "type": "bool"
        }
      ],
      "stateMutability": "view",
      "type": "function"
    },
    {
      "inputs": [],
      "name": "lastVoteAt",
      "outputs": [
        {
          "internalType": "uint256",
          "name": "",
          "type": "uint256"
        }
      ],
      "stateMutability": "view",
      "type": "function"
    },
    {
      "inputs": [],
      "name": "lastVoter",
      "outputs": [
        {
          "internalType": "address",
          "name": "",
          "type": "address"
        }
      ],
      "stateMutability": "view",
      "type": "function"
    },
    {
      "inputs": [],
      "name": "phase",
      "outputs": [
        {
          "internalType": "enum CollegeElection.ElectionPhase",
          "name": "",
          "type": "uint8"
        }
      ],
      "stateMutability": "view",
      "type": "function"
    },
    {
      "inputs": [],
      "name": "refreshPhase",
      "outputs": [],
      "stateMutability": "nonpayable",
      "type": "function"
    },
    {
      "inputs": [],
      "name": "startVoting",
      "outputs": [],
      "stateMutability": "nonpayable",
      "type": "function"
    },
    {
      "inputs": [],
      "name": "totalVotes",
      "outputs": [
        {
          "internalType": "uint256",
          "name": "",
          "type": "uint256"
        }
      ],
      "stateMutability": "view",
      "type": "function"
    },
    {
      "inputs": [
        {
          "internalType": "address",
          "name": "newAdmin",
          "type": "address"
        }
      ],
      "name": "transferAdmin",
      "outputs": [],
      "stateMutability": "nonpayable",
      "type": "function"
    },
    {
      "inputs": [
        {
          "internalType": "uint256",
          "name": "candidateId",
          "type": "uint256"
        },
        {
          "internalType": "string",
          "name": "name",
          "type": "string"
        },
        {
          "internalType": "string",
          "name": "tagline",
          "type": "string"
        },
        {
          "internalType": "string",
          "name": "manifesto",
          "type": "string"
        },
        {
          "internalType": "string",
          "name": "imageUri",
          "type": "string"
        }
      ],
      "name": "updateCandidate",
      "outputs": [],
      "stateMutability": "nonpayable",
      "type": "function"
    },
    {
      "inputs": [
        {
          "internalType": "string",
          "name": "title",
          "type": "string"
        },
        {
          "internalType": "string",
          "name": "description",
          "type": "string"
        },
        {
          "internalType": "string",
          "name": "banner",
          "type": "string"
        }
      ],
      "name": "updateElectionMeta",
      "outputs": [],
      "stateMutability": "nonpayable",
      "type": "function"
    },
    {
      "inputs": [
        {
          "internalType": "uint256",
          "name": "candidateId",
          "type": "uint256"
        }
      ],
      "name": "vote",
      "outputs": [],
      "stateMutability": "nonpayable",
      "type": "function"
    },
    {
      "inputs": [],
      "name": "votingEndsAt",
      "outputs": [
        {
          "internalType": "uint256",
          "name": "",
          "type": "uint256"
        }
      ],
      "stateMutability": "view",
      "type": "function"
    },
    {
      "inputs": [],
      "name": "votingStartsAt",
      "outputs": [
        {
          "internalType": "uint256",
          "name": "",
          "type": "uint256"
        }
      ],
      "stateMutability": "view",
      "type": "function"
    }
  ],
  "bytecode": "0x60806040523480156200001157600080fd5b5033600860006101000a81548173ffffffffffffffffffffffffffffffffffffffff021916908373ffffffffffffffffffffffffffffffffffffffff1602179055506000600c60006101000a81548160ff021916908360028111156200007c576200007b6200011a565b5b02179055506040518060400160405280601181526020017f436f6c6c65676520456c656374696f6e7300000000000000000000000000000081525060099081620000c79190620003c3565b506040518060600160405280602b81526020016200455b602b9139600a9081620000f29190620003c3565b5060405180602001604052806000815250600b9081620001139190620003c3565b50620004aa565b7f4e487b7100000000000000000000000000000000000000000000000000000000600052602160045260246000fd5b600081519050919050565b7f4e487b7100000000000000000000000000000000000000000000000000000000600052604160045260246000fd5b7f4e487b7100000000000000000000000000000000000000000000000000000000600052602260045260246000fd5b60006002820490506001821680620001cb57607f821691505b602082108103620001e157620001e062000183565b5b50919050565b60008190508160005260206000209050919050565b60006020601f8301049050919050565b600082821b905092915050565b6000600883026200024b7fffffffffffffffffffffffffffffffffffffffffffffffffffffffffffffffff826200020c565b6200025786836200020c565b95508019841693508086168417925050509392505050565b6000819050919050565b6000819050919050565b6000620002a46200029e62000298846200026f565b62000279565b6200026f565b9050919050565b6000819050919050565b620002c08362000283565b620002d8620002cf82620002ab565b84845462000219565b825550505050565b600090565b620002ef620002e0565b620002fc818484620002b5565b505050565b5b81811015620003245762000318600082620002e5565b60018101905062000302565b5050565b601f82111562000373576200033d81620001e7565b6200034884620001fc565b8101602085101562000358578190505b620003706200036785620001fc565b83018262000301565b50505b505050565b600082821c905092915050565b6000620003986000198460080262000378565b1980831691505092915050565b6000620003b3838362000385565b9150826002028217905092915050565b620003ce8262000149565b67ffffffffffffffff811115620003ea57620003e962000154565b5b620003f68254620001b2565b6200040382828562000328565b600060209050601f8311600181146200043b576000841562000426578287015190505b620004328582620003a5565b865550620004a2565b601f1984166200044b86620001e7565b60005b8281101562000475578489015182556001820191506020850194506020810190506200044e565b8683101562000495578489015162000491601f89168262000385565b8355505b6001600288020188555050505b505050505050565b6140a180620004ba6000396000f3fe608060405234801561001057600080fd5b50600436106101cf5760003560e01c8063578a72d311610104578063b1c9fe6e116100a2578063ec4b3c9b11610071578063ec4b3c9b146104c5578063f851a440146104e1578063f9d0f47b146104ff578063fa7f1bae1461051b576101cf565b8063b1c9fe6e14610463578063ba2c3f6c14610481578063c546c3b21461049d578063c631b292146104bb576101cf565b806375829def116100de57806375829def1461040157806394def29d1461041d5780639ff1103f1461043b578063a9a981a314610445576101cf565b8063578a72d3146103a95780635b5f834e146103c757806369d76ae2146103e3576101cf565b80632523d028116101715780632e6997fe1161014b5780632e6997fe1461032057806335b8e8201461033e57806342b03cc91461036f57806349a2b6031461038b576101cf565b80632523d028146102b457806327f9fd50146102d25780632db424ac14610302576101cf565b80631a10df25116101ad5780631a10df251461023e5780631dfeef7a1461025c5780631ec6b60a1461028c5780632433faf814610296576101cf565b80630121b93f146101d457806309eef43e146101f05780630d15fd7714610220575b600080fd5b6101ee60048036038101906101e99190612983565b610539565b005b61020a60048036038101906102059190612a0e565b6108dd565b6040516102179190612a56565b60405180910390f35b6102286108fd565b6040516102359190612a80565b60405180910390f35b610246610903565b6040516102539190612a80565b60405180910390f35b61027660048036038101906102719190612a0e565b610909565b6040516102839190612a56565b60405180910390f35b61029461095f565b005b61029e610b6d565b6040516102ab9190612ca8565b60405180910390f35b6102bc610dc1565b6040516102c99190612a80565b60405180910390f35b6102ec60048036038101906102e79190612983565b610dc7565b6040516102f99190612d68565b60405180910390f35b61030a6110fa565b6040516103179190612d99565b60405180910390f35b610328611120565b6040516103359190612f14565b60405180910390f35b61035860048036038101906103539190612983565b611454565b604051610366929190612f80565b60405180910390f35b61038960048036038101906103849190613015565b6115b8565b005b610393611927565b6040516103a091906130fe565b60405180910390f35b6103b16119b5565b6040516103be9190612a80565b60405180910390f35b6103e160048036038101906103dc9190613120565b6119bb565b005b6103eb611aaa565b6040516103f89190612d68565b60405180910390f35b61041b60048036038101906104169190612a0e565b611d90565b005b610425611f4f565b60405161043291906130fe565b60405180910390f35b610443611fdd565b005b61044d612040565b60405161045a9190612a80565b60405180910390f35b61046b612046565b604051610478919061316f565b60405180910390f35b61049b60048036038101906104969190613120565b612059565b005b6104a56122bb565b6040516104b291906130fe565b60405180910390f35b6104c3612349565b005b6104df60048036038101906104da919061318a565b612459565b005b6104e961264e565b6040516104f69190612d99565b60405180910390f35b61051960048036038101906105149190613286565b612674565b005b61052361278d565b6040516105309190612a56565b60405180910390f35b8060008111801561054c57506002548111155b61058b576040517f08c379a000000000000000000000000000000000000000000000000000000000815260040161058290613386565b60405180910390fd5b600080600083815260200190815260200160002060000154036105e3576040517f08c379a00000000000000000000000000000000000000000000000000000000081526004016105da906133f2565b60405180910390fd5b600160028111156105f7576105f6612b2b565b5b600c60009054906101000a900460ff16600281111561061957610618612b2b565b5b14610659576040517f08c379a00000000000000000000000000000000000000000000000000000000081526004016106509061345e565b60405180910390fd5b6000600454146106a9576004544210156106a8576040517f08c379a000000000000000000000000000000000000000000000000000000000815260040161069f906134ca565b60405180910390fd5b5b6000600554146106f9576005544211156106f8576040517f08c379a00000000000000000000000000000000000000000000000000000000081526004016106ef90613536565b60405180910390fd5b5b600160003373ffffffffffffffffffffffffffffffffffffffff1673ffffffffffffffffffffffffffffffffffffffff16815260200190815260200160002060009054906101000a900460ff1615610786576040517f08c379a000000000000000000000000000000000000000000000000000000000815260040161077d906135a2565b60405180910390fd5b60018060003373ffffffffffffffffffffffffffffffffffffffff1673ffffffffffffffffffffffffffffffffffffffff16815260200190815260200160002060006101000a81548160ff02191690831515021790555060008060008481526020019081526020016000209050600181600501600082825461080891906135f1565b9250508190555060016003600082825461082291906135f1565b9250508190555033600760006101000a81548173ffffffffffffffffffffffffffffffffffffffff021916908373ffffffffffffffffffffffffffffffffffffffff16021790555042600681905550823373ffffffffffffffffffffffffffffffffffffffff167fa36cc2bebb74db33e9f88110a07ef56e1b31b24b4c4f51b54b1664266e29f45b60405160405180910390a36000600554141580156108ca57506005544210155b156108d8576108d761281f565b5b505050565b60016020528060005260406000206000915054906101000a900460ff1681565b60035481565b60045481565b6000600160008373ffffffffffffffffffffffffffffffffffffffff1673ffffffffffffffffffffffffffffffffffffffff16815260200190815260200160002060009054906101000a900460ff169050919050565b600860009054906101000a900473ffffffffffffffffffffffffffffffffffffffff1673ffffffffffffffffffffffffffffffffffffffff163373ffffffffffffffffffffffffffffffffffffffff16146109ef576040517f08c379a00000000000000000000000000000000000000000000000000000000081526004016109e690613671565b60405180910390fd5b60006002811115610a0357610a02612b2b565b5b600c60009054906101000a900460ff166002811115610a2557610a24612b2b565b5b14610a65576040517f08c379a0000000000000000000000000000000000000000000000000000000008152600401610a5c906136dd565b60405180910390fd5b600060025411610aaa576040517f08c379a0000000000000000000000000000000000000000000000000000000008152600401610aa190613749565b60405180910390fd5b600060045414610afa57600454421015610af9576040517f08c379a0000000000000000000000000000000000000000000000000000000008152600401610af0906137b5565b60405180910390fd5b5b6001600c60006101000a81548160ff02191690836002811115610b2057610b1f612b2b565b5b02179055507fa6dcc92f45df25789d5639b7a0c97ba1edf3bb1c0b5dd3376fd96a0db87c4642600c60009054906101000a900460ff16604051610b63919061316f565b60405180910390a1565b610b75612892565b60405180610140016040528060098054610b8e90613804565b80601f0160208091040260200160405190810160405280929190818152602001828054610bba90613804565b8015610c075780601f10610bdc57610100808354040283529160200191610c07565b820191906000526020600020905b815481529060010190602001808311610bea57829003601f168201915b50505050508152602001600a8054610c1e90613804565b80601f0160208091040260200160405190810160405280929190818152602001828054610c4a90613804565b8015610c975780601f10610c6c57610100808354040283529160200191610c97565b820191906000526020600020905b815481529060010190602001808311610c7a57829003601f168201915b50505050508152602001600b8054610cae90613804565b80601f0160208091040260200160405190810160405280929190818152602001828054610cda90613804565b8015610d275780601f10610cfc57610100808354040283529160200191610d27565b820191906000526020600020905b815481529060010190602001808311610d0a57829003601f168201915b50505050508152602001600c60009054906101000a900460ff166002811115610d5357610d52612b2b565b5b815260200160025481526020016003548152602001600454815260200160055481526020016006548152602001600760009054906101000a900473ffffffffffffffffffffffffffffffffffffffff1673ffffffffffffffffffffffffffffffffffffffff16815250905090565b60065481565b610dcf61290d565b81600081118015610de257506002548111155b610e21576040517f08c379a0000000000000000000000000000000000000000000000000000000008152600401610e1890613386565b60405180910390fd5b60008060008381526020019081526020016000206000015403610e79576040517f08c379a0000000000000000000000000000000000000000000000000000000008152600401610e70906133f2565b60405180910390fd5b6000808481526020019081526020016000206040518060c001604052908160008201548152602001600182018054610eb090613804565b80601f0160208091040260200160405190810160405280929190818152602001828054610edc90613804565b8015610f295780601f10610efe57610100808354040283529160200191610f29565b820191906000526020600020905b815481529060010190602001808311610f0c57829003601f168201915b50505050508152602001600282018054610f4290613804565b80601f0160208091040260200160405190810160405280929190818152602001828054610f6e90613804565b8015610fbb5780601f10610f9057610100808354040283529160200191610fbb565b820191906000526020600020905b815481529060010190602001808311610f9e57829003601f168201915b50505050508152602001600382018054610fd490613804565b80601f016020809104026020016040519081016040528092919081815260200182805461100090613804565b801561104d5780601f106110225761010080835404028352916020019161104d565b820191906000526020600020905b81548152906001019060200180831161103057829003601f168201915b5050505050815260200160048201805461106690613804565b80601f016020809104026020016040519081016040528092919081815260200182805461109290613804565b80156110df5780601f106110b4576101008083540402835291602001916110df565b820191906000526020600020905b8154815290600101906020018083116110c257829003601f168201915b50505050508152602001600582015481525050915050919050565b600760009054906101000a900473ffffffffffffffffffffffffffffffffffffffff1681565b6060600060025467ffffffffffffffff8111156111405761113f613835565b5b60405190808252806020026020018201604052801561117957816020015b61116661290d565b81526020019060019003908161115e5790505b509050600080600190505b600254811161144b5760008060008381526020019081526020016000209050806040518060c0016040529081600082015481526020016001820180546111c990613804565b80601f01602080910402602001604051908101604052809291908181526020018280546111f590613804565b80156112425780601f1061121757610100808354040283529160200191611242565b820191906000526020600020905b81548152906001019060200180831161122557829003601f168201915b5050505050815260200160028201805461125b90613804565b80601f016020809104026020016040519081016040528092919081815260200182805461128790613804565b80156112d45780601f106112a9576101008083540402835291602001916112d4565b820191906000526020600020905b8154815290600101906020018083116112b757829003601f168201915b505050505081526020016003820180546112ed90613804565b80601f016020809104026020016040519081016040528092919081815260200182805461131990613804565b80156113665780601f1061133b57610100808354040283529160200191611366565b820191906000526020600020905b81548152906001019060200180831161134957829003601f168201915b5050505050815260200160048201805461137f90613804565b80601f01602080910402602001604051908101604052809291908181526020018280546113ab90613804565b80156113f85780601f106113cd576101008083540402835291602001916113f8565b820191906000526020600020905b8154815290600101906020018083116113db57829003601f168201915b5050505050815260200160058201548152505084848151811061141e5761141d613864565b5b6020026020010181905250828061143490613893565b93505050808061144390613893565b915050611184565b50819250505090565b606060008260008111801561146b57506002548111155b6114aa576040517f08c379a00000000000000000000000000000000000000000000000000000000081526004016114a190613386565b60405180910390fd5b60008060008381526020019081526020016000206000015403611502576040517f08c379a00000000000000000000000000000000000000000000000000000000081526004016114f9906133f2565b60405180910390fd5b6000806000868152602001908152602001600020905080600101816005015481805461152d90613804565b80601f016020809104026020016040519081016040528092919081815260200182805461155990613804565b80156115a65780601f1061157b576101008083540402835291602001916115a6565b820191906000526020600020905b81548152906001019060200180831161158957829003601f168201915b50505050509150935093505050915091565b600860009054906101000a900473ffffffffffffffffffffffffffffffffffffffff1673ffffffffffffffffffffffffffffffffffffffff163373ffffffffffffffffffffffffffffffffffffffff1614611648576040517f08c379a000000000000000000000000000000000000000000000000000000000815260040161163f90613671565b60405180910390fd5b6000600281111561165c5761165b612b2b565b5b600c60009054906101000a900460ff16600281111561167e5761167d612b2b565b5b146116be576040517f08c379a00000000000000000000000000000000000000000000000000000000081526004016116b590613927565b60405180910390fd5b60008888905011611704576040517f08c379a00000000000000000000000000000000000000000000000000000000081526004016116fb90613993565b60405180910390fd5b60016002600082825461171791906135f1565b925050819055506040518060c00160405280600254815260200189898080601f016020809104026020016040519081016040528093929190818152602001838380828437600081840152601f19601f82011690508083019250505050505050815260200187878080601f016020809104026020016040519081016040528093929190818152602001838380828437600081840152601f19601f82011690508083019250505050505050815260200185858080601f016020809104026020016040519081016040528093929190818152602001838380828437600081840152601f19601f82011690508083019250505050505050815260200183838080601f016020809104026020016040519081016040528093929190818152602001838380828437600081840152601f19601f820116905080830192505050505050508152602001600081525060008060025481526020019081526020016000206000820151816000015560208201518160010190816118919190613b5f565b5060408201518160020190816118a79190613b5f565b5060608201518160030190816118bd9190613b5f565b5060808201518160040190816118d39190613b5f565b5060a082015181600501559050506002547fe83b2a43e7e82d975c8a0a6d2f045153c869e111136a34d1889ab7b598e396a38989604051611915929190613c6d565b60405180910390a25050505050505050565b600a805461193490613804565b80601f016020809104026020016040519081016040528092919081815260200182805461196090613804565b80156119ad5780601f10611982576101008083540402835291602001916119ad565b820191906000526020600020905b81548152906001019060200180831161199057829003601f168201915b505050505081565b60055481565b600860009054906101000a900473ffffffffffffffffffffffffffffffffffffffff1673ffffffffffffffffffffffffffffffffffffffff163373ffffffffffffffffffffffffffffffffffffffff1614611a4b576040517f08c379a0000000000000000000000000000000000000000000000000000000008152600401611a4290613671565b60405180910390fd5b6000811480611a5957508181115b611a98576040517f08c379a0000000000000000000000000000000000000000000000000000000008152600401611a8f90613cdd565b60405180910390fd5b81600481905550806005819055505050565b611ab261290d565b6000806000600190505b6002548111611b0657600080600083815260200190815260200160002090508381600501541115611af257806005015493508192505b508080611afe90613893565b915050611abc565b5060008114611d8b576000808281526020019081526020016000206040518060c001604052908160008201548152602001600182018054611b4690613804565b80601f0160208091040260200160405190810160405280929190818152602001828054611b7290613804565b8015611bbf5780601f10611b9457610100808354040283529160200191611bbf565b820191906000526020600020905b815481529060010190602001808311611ba257829003601f168201915b50505050508152602001600282018054611bd890613804565b80601f0160208091040260200160405190810160405280929190818152602001828054611c0490613804565b8015611c515780601f10611c2657610100808354040283529160200191611c51565b820191906000526020600020905b815481529060010190602001808311611c3457829003601f168201915b50505050508152602001600382018054611c6a90613804565b80601f0160208091040260200160405190810160405280929190818152602001828054611c9690613804565b8015611ce35780601f10611cb857610100808354040283529160200191611ce3565b820191906000526020600020905b815481529060010190602001808311611cc657829003601f168201915b50505050508152602001600482018054611cfc90613804565b80601f0160208091040260200160405190810160405280929190818152602001828054611d2890613804565b8015611d755780601f10611d4a57610100808354040283529160200191611d75565b820191906000526020600020905b815481529060010190602001808311611d5857829003601f168201915b5050505050815260200160058201548152505092505b505090565b600860009054906101000a900473ffffffffffffffffffffffffffffffffffffffff1673ffffffffffffffffffffffffffffffffffffffff163373ffffffffffffffffffffffffffffffffffffffff1614611e20576040517f08c379a0000000000000000000000000000000000000000000000000000000008152600401611e1790613671565b60405180910390fd5b600073ffffffffffffffffffffffffffffffffffffffff168173ffffffffffffffffffffffffffffffffffffffff1603611e8f576040517f08c379a0000000000000000000000000000000000000000000000000000000008152600401611e8690613d49565b60405180910390fd5b8073ffffffffffffffffffffffffffffffffffffffff16600860009054906101000a900473ffffffffffffffffffffffffffffffffffffffff1673ffffffffffffffffffffffffffffffffffffffff167ff8ccb027dfcd135e000e9d45e6cc2d662578a8825d4c45b5e32e0adf67e79ec660405160405180910390a380600860006101000a81548173ffffffffffffffffffffffffffffffffffffffff021916908373ffffffffffffffffffffffffffffffffffffffff16021790555050565b600b8054611f5c90613804565b80601f0160208091040260200160405190810160405280929190818152602001828054611f8890613804565b8015611fd55780601f10611faa57610100808354040283529160200191611fd5565b820191906000526020600020905b815481529060010190602001808311611fb857829003601f168201915b505050505081565b60016002811115611ff157611ff0612b2b565b5b600c60009054906101000a900460ff16600281111561201357612012612b2b565b5b1480156120235750600060055414155b8015612030575060055442115b1561203e5761203d61281f565b5b565b60025481565b600c60009054906101000a900460ff1681565b600860009054906101000a900473ffffffffffffffffffffffffffffffffffffffff1673ffffffffffffffffffffffffffffffffffffffff163373ffffffffffffffffffffffffffffffffffffffff16146120e9576040517f08c379a00000000000000000000000000000000000000000000000000000000081526004016120e090613671565b60405180910390fd5b816000811180156120fc57506002548111155b61213b576040517f08c379a000000000000000000000000000000000000000000000000000000000815260040161213290613386565b60405180910390fd5b60008060008381526020019081526020016000206000015403612193576040517f08c379a000000000000000000000000000000000000000000000000000000000815260040161218a906133f2565b60405180910390fd5b600080600085815260200190815260200160002090506000816005015490508084036121c05750506122b6565b8084111561220057600081856121d69190613d69565b905084836005018190555080600360008282546121f391906135f1565b9250508190555050612279565b6000848261220e9190613d69565b9050806003541015612255576040517f08c379a000000000000000000000000000000000000000000000000000000000815260040161224c90613de9565b60405180910390fd5b84836005018190555080600360008282546122709190613d69565b92505081905550505b847ffd86242a95b4f136bbafa72202ef6317aa33c72e1abbf9be9899f3c40946c62082866040516122ab929190613e09565b60405180910390a250505b505050565b600980546122c890613804565b80601f01602080910402602001604051908101604052809291908181526020018280546122f490613804565b80156123415780601f1061231657610100808354040283529160200191612341565b820191906000526020600020905b81548152906001019060200180831161232457829003601f168201915b505050505081565b600860009054906101000a900473ffffffffffffffffffffffffffffffffffffffff1673ffffffffffffffffffffffffffffffffffffffff163373ffffffffffffffffffffffffffffffffffffffff16146123d9576040517f08c379a00000000000000000000000000000000000000000000000000000000081526004016123d090613671565b60405180910390fd5b600160028111156123ed576123ec612b2b565b5b600c60009054906101000a900460ff16600281111561240f5761240e612b2b565b5b1461244f576040517f08c379a000000000000000000000000000000000000000000000000000000000815260040161244690613e7e565b60405180910390fd5b61245761281f565b565b600860009054906101000a900473ffffffffffffffffffffffffffffffffffffffff1673ffffffffffffffffffffffffffffffffffffffff163373ffffffffffffffffffffffffffffffffffffffff16146124e9576040517f08c379a00000000000000000000000000000000000000000000000000000000081526004016124e090613671565b60405180910390fd5b886000811180156124fc57506002548111155b61253b576040517f08c379a000000000000000000000000000000000000000000000000000000000815260040161253290613386565b60405180910390fd5b60008060008381526020019081526020016000206000015403612593576040517f08c379a000000000000000000000000000000000000000000000000000000000815260040161258a906133f2565b60405180910390fd5b60008060008c8152602001908152602001600020905060008a8a905011156125ca5789898260010191826125c8929190613ea9565b505b87878260020191826125dd929190613ea9565b5085858260030191826125f1929190613ea9565b508383826004019182612605929190613ea9565b508a7f5665515fd2ae27c198f44dc3736bc1956d057b3eb330d002d5441082f9e38ece826001016040516126399190613ffd565b60405180910390a25050505050505050505050565b600860009054906101000a900473ffffffffffffffffffffffffffffffffffffffff1681565b600860009054906101000a900473ffffffffffffffffffffffffffffffffffffffff1673ffffffffffffffffffffffffffffffffffffffff163373ffffffffffffffffffffffffffffffffffffffff1614612704576040517f08c379a00000000000000000000000000000000000000000000000000000000081526004016126fb90613671565b60405180910390fd5b600086869050111561272357858560099182612721929190613ea9565b505b8383600a9182612734929190613ea9565b508181600b9182612746929190613ea9565b507f68c3da110f2ce0ef03703ec92e1f1af3dd9c16bd13ebc0ccb42d7bb71e4ad2886009600a600b60405161277d9392919061401f565b60405180910390a1505050505050565b6000600160028111156127a3576127a2612b2b565b5b600c60009054906101000a900460ff1660028111156127c5576127c4612b2b565b5b146127d3576000905061281c565b6000600554141580156127e7575060055442115b156127f5576000905061281c565b600060045414158015612809575060045442105b15612817576000905061281c565b600190505b90565b6002600c60006101000a81548160ff0219169083600281111561284557612844612b2b565b5b02179055507fa6dcc92f45df25789d5639b7a0c97ba1edf3bb1c0b5dd3376fd96a0db87c4642600c60009054906101000a900460ff16604051612888919061316f565b60405180910390a1565b604051806101400160405280606081526020016060815260200160608152602001600060028111156128c7576128c6612b2b565b5b81526020016000815260200160008152602001600081526020016000815260200160008152602001600073ffffffffffffffffffffffffffffffffffffffff1681525090565b6040518060c001604052806000815260200160608152602001606081526020016060815260200160608152602001600081525090565b600080fd5b600080fd5b6000819050919050565b6129608161294d565b811461296b57600080fd5b50565b60008135905061297d81612957565b92915050565b60006020828403121561299957612998612943565b5b60006129a78482850161296e565b91505092915050565b600073ffffffffffffffffffffffffffffffffffffffff82169050919050565b60006129db826129b0565b9050919050565b6129eb816129d0565b81146129f657600080fd5b50565b600081359050612a08816129e2565b92915050565b600060208284031215612a2457612a23612943565b5b6000612a32848285016129f9565b91505092915050565b60008115159050919050565b612a5081612a3b565b82525050565b6000602082019050612a6b6000830184612a47565b92915050565b612a7a8161294d565b82525050565b6000602082019050612a956000830184612a71565b92915050565b600081519050919050565b600082825260208201905092915050565b60005b83811015612ad5578082015181840152602081019050612aba565b60008484015250505050565b6000601f19601f8301169050919050565b6000612afd82612a9b565b612b078185612aa6565b9350612b17818560208601612ab7565b612b2081612ae1565b840191505092915050565b7f4e487b7100000000000000000000000000000000000000000000000000000000600052602160045260246000fd5b60038110612b6b57612b6a612b2b565b5b50565b6000819050612b7c82612b5a565b919050565b6000612b8c82612b6e565b9050919050565b612b9c81612b81565b82525050565b612bab8161294d565b82525050565b612bba816129d0565b82525050565b6000610140830160008301518482036000860152612bde8282612af2565b91505060208301518482036020860152612bf88282612af2565b91505060408301518482036040860152612c128282612af2565b9150506060830151612c276060860182612b93565b506080830151612c3a6080860182612ba2565b5060a0830151612c4d60a0860182612ba2565b5060c0830151612c6060c0860182612ba2565b5060e0830151612c7360e0860182612ba2565b50610100830151612c88610100860182612ba2565b50610120830151612c9d610120860182612bb1565b508091505092915050565b60006020820190508181036000830152612cc28184612bc0565b905092915050565b600060c083016000830151612ce26000860182612ba2565b5060208301518482036020860152612cfa8282612af2565b91505060408301518482036040860152612d148282612af2565b91505060608301518482036060860152612d2e8282612af2565b91505060808301518482036080860152612d488282612af2565b91505060a0830151612d5d60a0860182612ba2565b508091505092915050565b60006020820190508181036000830152612d828184612cca565b905092915050565b612d93816129d0565b82525050565b6000602082019050612dae6000830184612d8a565b92915050565b600081519050919050565b600082825260208201905092915050565b6000819050602082019050919050565b600060c083016000830151612df86000860182612ba2565b5060208301518482036020860152612e108282612af2565b91505060408301518482036040860152612e2a8282612af2565b91505060608301518482036060860152612e448282612af2565b91505060808301518482036080860152612e5e8282612af2565b91505060a0830151612e7360a0860182612ba2565b508091505092915050565b6000612e8a8383612de0565b905092915050565b6000602082019050919050565b6000612eaa82612db4565b612eb48185612dbf565b935083602082028501612ec685612dd0565b8060005b85811015612f025784840389528151612ee38582612e7e565b9450612eee83612e92565b925060208a01995050600181019050612eca565b50829750879550505050505092915050565b60006020820190508181036000830152612f2e8184612e9f565b905092915050565b600082825260208201905092915050565b6000612f5282612a9b565b612f5c8185612f36565b9350612f6c818560208601612ab7565b612f7581612ae1565b840191505092915050565b60006040820190508181036000830152612f9a8185612f47565b9050612fa96020830184612a71565b9392505050565b600080fd5b600080fd5b600080fd5b60008083601f840112612fd557612fd4612fb0565b5b8235905067ffffffffffffffff811115612ff257612ff1612fb5565b5b60208301915083600182028301111561300e5761300d612fba565b5b9250929050565b6000806000806000806000806080898b03121561303557613034612943565b5b600089013567ffffffffffffffff81111561305357613052612948565b5b61305f8b828c01612fbf565b9850985050602089013567ffffffffffffffff81111561308257613081612948565b5b61308e8b828c01612fbf565b9650965050604089013567ffffffffffffffff8111156130b1576130b0612948565b5b6130bd8b828c01612fbf565b9450945050606089013567ffffffffffffffff8111156130e0576130df612948565b5b6130ec8b828c01612fbf565b92509250509295985092959890939650565b600060208201905081810360008301526131188184612f47565b905092915050565b6000806040838503121561313757613136612943565b5b60006131458582860161296e565b92505060206131568582860161296e565b9150509250929050565b61316981612b81565b82525050565b60006020820190506131846000830184613160565b92915050565b600080600080600080600080600060a08a8c0312156131ac576131ab612943565b5b60006131ba8c828d0161296e565b99505060208a013567ffffffffffffffff8111156131db576131da612948565b5b6131e78c828d01612fbf565b985098505060408a013567ffffffffffffffff81111561320a57613209612948565b5b6132168c828d01612fbf565b965096505060608a013567ffffffffffffffff81111561323957613238612948565b5b6132458c828d01612fbf565b945094505060808a013567ffffffffffffffff81111561326857613267612948565b5b6132748c828d01612fbf565b92509250509295985092959850929598565b600080600080600080606087890312156132a3576132a2612943565b5b600087013567ffffffffffffffff8111156132c1576132c0612948565b5b6132cd89828a01612fbf565b9650965050602087013567ffffffffffffffff8111156132f0576132ef612948565b5b6132fc89828a01612fbf565b9450945050604087013567ffffffffffffffff81111561331f5761331e612948565b5b61332b89828a01612fbf565b92509250509295509295509295565b7f496e76616c69642063616e646964617465000000000000000000000000000000600082015250565b6000613370601183612f36565b915061337b8261333a565b602082019050919050565b6000602082019050818103600083015261339f81613363565b9050919050565b7f43616e6469646174652072656d6f766564000000000000000000000000000000600082015250565b60006133dc601183612f36565b91506133e7826133a6565b602082019050919050565b6000602082019050818103600083015261340b816133cf565b9050919050565b7f566f74696e6720636c6f73656400000000000000000000000000000000000000600082015250565b6000613448600d83612f36565b915061345382613412565b602082019050919050565b600060208201905081810360008301526134778161343b565b9050919050565b7f4e6f742073746172746564000000000000000000000000000000000000000000600082015250565b60006134b4600b83612f36565b91506134bf8261347e565b602082019050919050565b600060208201905081810360008301526134e3816134a7565b9050919050565b7f456c656374696f6e20656e646564000000000000000000000000000000000000600082015250565b6000613520600e83612f36565b915061352b826134ea565b602082019050919050565b6000602082019050818103600083015261354f81613513565b9050919050565b7f416c726561647920766f74656400000000000000000000000000000000000000600082015250565b600061358c600d83612f36565b915061359782613556565b602082019050919050565b600060208201905081810360008301526135bb8161357f565b9050919050565b7f4e487b7100000000000000000000000000000000000000000000000000000000600052601160045260246000fd5b60006135fc8261294d565b91506136078361294d565b925082820190508082111561361f5761361e6135c2565b5b92915050565b7f4f6e6c792061646d696e00000000000000000000000000000000000000000000600082015250565b600061365b600a83612f36565b915061366682613625565b602082019050919050565b6000602082019050818103600083015261368a8161364e565b9050919050565b7f416c726561647920737461727465640000000000000000000000000000000000600082015250565b60006136c7600f83612f36565b91506136d282613691565b602082019050919050565b600060208201905081810360008301526136f6816136ba565b9050919050565b7f4e6f2063616e6469646174657300000000000000000000000000000000000000600082015250565b6000613733600d83612f36565b915061373e826136fd565b602082019050919050565b6000602082019050818103600083015261376281613726565b9050919050565b7f546f6f206561726c790000000000000000000000000000000000000000000000600082015250565b600061379f600983612f36565b91506137aa82613769565b602082019050919050565b600060208201905081810360008301526137ce81613792565b9050919050565b7f4e487b7100000000000000000000000000000000000000000000000000000000600052602260045260246000fd5b6000600282049050600182168061381c57607f821691505b60208210810361382f5761382e6137d5565b5b50919050565b7f4e487b7100000000000000000000000000000000000000000000000000000000600052604160045260246000fd5b7f4e487b7100000000000000000000000000000000000000000000000000000000600052603260045260246000fd5b600061389e8261294d565b91507fffffffffffffffffffffffffffffffffffffffffffffffffffffffffffffffff82036138d0576138cf6135c2565b5b600182019050919050565b7f526567697374726174696f6e20636c6f73656400000000000000000000000000600082015250565b6000613911601383612f36565b915061391c826138db565b602082019050919050565b6000602082019050818103600083015261394081613904565b9050919050565b7f4e616d6520726571756972656400000000000000000000000000000000000000600082015250565b600061397d600d83612f36565b915061398882613947565b602082019050919050565b600060208201905081810360008301526139ac81613970565b9050919050565b60008190508160005260206000209050919050565b60006020601f8301049050919050565b600082821b905092915050565b600060088302613a157fffffffffffffffffffffffffffffffffffffffffffffffffffffffffffffffff826139d8565b613a1f86836139d8565b95508019841693508086168417925050509392505050565b6000819050919050565b6000613a5c613a57613a528461294d565b613a37565b61294d565b9050919050565b6000819050919050565b613a7683613a41565b613a8a613a8282613a63565b8484546139e5565b825550505050565b600090565b613a9f613a92565b613aaa818484613a6d565b505050565b5b81811015613ace57613ac3600082613a97565b600181019050613ab0565b5050565b601f821115613b1357613ae4816139b3565b613aed846139c8565b81016020851015613afc578190505b613b10613b08856139c8565b830182613aaf565b50505b505050565b600082821c905092915050565b6000613b3660001984600802613b18565b1980831691505092915050565b6000613b4f8383613b25565b9150826002028217905092915050565b613b6882612a9b565b67ffffffffffffffff811115613b8157613b80613835565b5b613b8b8254613804565b613b96828285613ad2565b600060209050601f831160018114613bc95760008415613bb7578287015190505b613bc18582613b43565b865550613c29565b601f198416613bd7866139b3565b60005b82811015613bff57848901518255600182019150602085019450602081019050613bda565b86831015613c1c5784890151613c18601f891682613b25565b8355505b6001600288020188555050505b505050505050565b82818337600083830152505050565b6000613c4c8385612f36565b9350613c59838584613c31565b613c6283612ae1565b840190509392505050565b60006020820190508181036000830152613c88818486613c40565b90509392505050565b7f496e76616c69642077696e646f77000000000000000000000000000000000000600082015250565b6000613cc7600e83612f36565b9150613cd282613c91565b602082019050919050565b60006020820190508181036000830152613cf681613cba565b9050919050565b7f496e76616c69642061646d696e00000000000000000000000000000000000000600082015250565b6000613d33600d83612f36565b9150613d3e82613cfd565b602082019050919050565b60006020820190508181036000830152613d6281613d26565b9050919050565b6000613d748261294d565b9150613d7f8361294d565b9250828203905081811115613d9757613d966135c2565b5b92915050565b7f496e76616c696420746f74616c00000000000000000000000000000000000000600082015250565b6000613dd3600d83612f36565b9150613dde82613d9d565b602082019050919050565b60006020820190508181036000830152613e0281613dc6565b9050919050565b6000604082019050613e1e6000830185612a71565b613e2b6020830184612a71565b9392505050565b7f4e6f7420766f74696e6700000000000000000000000000000000000000000000600082015250565b6000613e68600a83612f36565b9150613e7382613e32565b602082019050919050565b60006020820190508181036000830152613e9781613e5b565b9050919050565b600082905092915050565b613eb38383613e9e565b67ffffffffffffffff811115613ecc57613ecb613835565b5b613ed68254613804565b613ee1828285613ad2565b6000601f831160018114613f105760008415613efe578287013590505b613f088582613b43565b865550613f70565b601f198416613f1e866139b3565b60005b82811015613f4657848901358255600182019150602085019450602081019050613f21565b86831015613f635784890135613f5f601f891682613b25565b8355505b6001600288020188555050505b50505050505050565b60008154613f8681613804565b613f908186612f36565b94506001821660008114613fab5760018114613fc157613ff4565b60ff198316865281151560200286019350613ff4565b613fca856139b3565b60005b83811015613fec57815481890152600182019150602081019050613fcd565b808801955050505b50505092915050565b600060208201905081810360008301526140178184613f79565b905092915050565b600060608201905081810360008301526140398186613f79565b9050818103602083015261404d8185613f79565b905081810360408301526140618184613f79565b905094935050505056fea2646970667358221220dd6cb09a98880f93ac10184c86c0f060ec240e0547fddf89d85c77b18449b3aa64736f6c6343000813003353686170652074686520667574757265206c656164657273686970206f6620796f75722063616d7075732e",
  "linkReferences": {},
  "deployedLinkReferences": {}
}